{
  "contractName": "Decryptor",
  "abi": [
    {
      "inputs": [
        {
          "internalType": "address",
          "name": "creator",
          "type": "address"
        }
      ],
      "stateMutability": "nonpayable",
      "type": "constructor"
    },
    {
      "inputs": [
        {
          "internalType": "uint256",
          "name": "data",
          "type": "uint256"
        },
        {
          "internalType": "uint256",
          "name": "key",
          "type": "uint256"
        },
        {
          "internalType": "uint256",
          "name": "prev",
          "type": "uint256"
        }
      ],
      "name": "decrypt",
      "outputs": [
        {
          "internalType": "uint256",
          "name": "",
          "type": "uint256"
        }
      ],
      "stateMutability": "view",
      "type": "function",
      "constant": true
    }
  ],
  "bytecode": "0x608060405234801561001057600080fd5b506040516103bb3803806103bb833981810160405281019061003291906100db565b806000806101000a81548173ffffffffffffffffffffffffffffffffffffffff021916908373ffffffffffffffffffffffffffffffffffffffff16021790555050610108565b600080fd5b600073ffffffffffffffffffffffffffffffffffffffff82169050919050565b60006100a88261007d565b9050919050565b6100b88161009d565b81146100c357600080fd5b50565b6000815190506100d5816100af565b92915050565b6000602082840312156100f1576100f0610078565b5b60006100ff848285016100c6565b91505092915050565b6102a4806101176000396000f3fe608060405234801561001057600080fd5b506004361061002b5760003560e01c8063d875cc3e14610030575b600080fd5b61004a600480360381019061004591906101f1565b610060565b6040516100579190610253565b60405180910390f35b60008060009054906101000a900473ffffffffffffffffffffffffffffffffffffffff1673ffffffffffffffffffffffffffffffffffffffff163373ffffffffffffffffffffffffffffffffffffffff16146100bb57600080fd5b60006f13371337133713371337133713371337905060006f3713371337133713371337133713371390507fffffffffffffffffffffffffffffffff00000000000000000000000000000000841660801c6fffffffffffffffffffffffffffffffff85166fffffffffffffffffffffffffffffffff88167fffffffffffffffffffffffffffffffff00000000000000000000000000000000891660801c838218915082811890507fffffffffffffffffffffffffffffffff00000000000000000000000000000000891660801c6fffffffffffffffffffffffffffffffff8a16818318818518898118898318808260801b178060005260206000f35b600080fd5b6000819050919050565b6101ce816101bb565b81146101d957600080fd5b50565b6000813590506101eb816101c5565b92915050565b60008060006060848603121561020a576102096101b6565b5b6000610218868287016101dc565b9350506020610229868287016101dc565b925050604061023a868287016101dc565b9150509250925092565b61024d816101bb565b82525050565b60006020820190506102686000830184610244565b9291505056fea264697066735822122070e5c05ab5741f935019dd3a1793806e2541e08364eb0cb015ce5d6ca1b39dd264736f6c634300080c0033",
  "immutableReferences": {},
  "source": "// SPDX-License-Identifier: MIT\npragma solidity >=0.4.22 <0.9.0;\n\ncontract Decryptor {\n  address owner;\n\n  constructor(address creator) {\n    owner = creator;\n  }\n\n  function decrypt(uint256 data, uint256 key, uint256 prev) public view returns (uint256){\n    require(msg.sender == owner);\n    uint256 a = 0x13371337133713371337133713371337;\n    uint256 b = 0x37133713371337133713371337133713;\n    assembly {\n      let p1 := shr(128, and(prev, 0xffffffffffffffffffffffffffffffff00000000000000000000000000000000))\n      let p2 := and(prev, 0xffffffffffffffffffffffffffffffff)\n      let z1 := and(data, 0xffffffffffffffffffffffffffffffff)\n      let z2 := shr(128, and(data, 0xffffffffffffffffffffffffffffffff00000000000000000000000000000000))\n      z1 := xor(z1, p1)\n      z2 := xor(z2, p2)\n\n      let k1 := shr(128, and(key, 0xffffffffffffffffffffffffffffffff00000000000000000000000000000000))\n      let k2 := and(key, 0xffffffffffffffffffffffffffffffff)\n      let y1 := xor(z2, k1)\n      let y2 := xor(z1, k2)\n\n      let x1 := xor(y2, a)\n      let x2 := xor(y1, b)\n\n      let result := or(shl(128, x1), x2)\n      mstore(0x0, result)\n      return(0x0, 32)\n    }\n  }\n}\n",
  "sourcePath": "/home/dexus/projects/innoctf-2022/important/src/contracts/Decryptor.sol",
  "compiler": {
    "name": "solc",
    "version": "0.8.12+commit.f00d7308.Emscripten.clang"
  },
  "schemaVersion": "3.4.6",
  "updatedAt": "2022-04-02T13:03:23.783Z",
  "networkType": "ethereum",
  "devdoc": {
    "kind": "dev",
    "methods": {},
    "version": 1
  },
  "userdoc": {
    "kind": "user",
    "methods": {},
    "version": 1
  }
}