{
  "contractName": "Important",
  "abi": [
    {
      "inputs": [
        {
          "internalType": "uint256",
          "name": "k",
          "type": "uint256"
        }
      ],
      "stateMutability": "nonpayable",
      "type": "constructor"
    },
    {
      "inputs": [],
      "name": "owner",
      "outputs": [
        {
          "internalType": "address",
          "name": "",
          "type": "address"
        }
      ],
      "stateMutability": "view",
      "type": "function",
      "constant": true
    },
    {
      "inputs": [
        {
          "internalType": "uint256",
          "name": "m",
          "type": "uint256"
        }
      ],
      "name": "add",
      "outputs": [],
      "stateMutability": "nonpayable",
      "type": "function"
    },
    {
      "inputs": [
        {
          "internalType": "address",
          "name": "decryptor",
          "type": "address"
        }
      ],
      "name": "decrypt",
      "outputs": [
        {
          "internalType": "bytes32[]",
          "name": "",
          "type": "bytes32[]"
        }
      ],
      "stateMutability": "nonpayable",
      "type": "function"
    },
    {
      "inputs": [],
      "name": "get_data",
      "outputs": [
        {
          "internalType": "bytes32[]",
          "name": "",
          "type": "bytes32[]"
        }
      ],
      "stateMutability": "view",
      "type": "function",
      "constant": true
    }
  ],
  "bytecode": "0x6080604052602067ffffffffffffffff81111561001f5761001e610150565b5b60405190808252806020026020018201604052801561004d5781602001602082028036833780820191505090505b50600290805190602001906100639291906100e6565b50600060035534801561007557600080fd5b5060405162000b2538038062000b25833981810160405281019061009991906101ba565b336000806101000a81548173ffffffffffffffffffffffffffffffffffffffff021916908373ffffffffffffffffffffffffffffffffffffffff16021790555080600181905550506101e7565b828054828255906000526020600020908101928215610122579160200282015b82811115610121578251825591602001919060010190610106565b5b50905061012f9190610133565b5090565b5b8082111561014c576000816000905550600101610134565b5090565b7f4e487b7100000000000000000000000000000000000000000000000000000000600052604160045260246000fd5b600080fd5b6000819050919050565b61019781610184565b81146101a257600080fd5b50565b6000815190506101b48161018e565b92915050565b6000602082840312156101d0576101cf61017f565b5b60006101de848285016101a5565b91505092915050565b61092e80620001f76000396000f3fe608060405234801561001057600080fd5b506004361061004c5760003560e01c80631003e2d21461005157806350bf8b0d1461006d5780638da5cb5b1461008b578063c25cbdce146100a9575b600080fd5b61006b600480360381019061006691906104e5565b6100d9565b005b6100756101ec565b60405161008291906105da565b60405180910390f35b6100936102a5565b6040516100a0919061063d565b60405180910390f35b6100c360048036038101906100be9190610684565b6102c9565b6040516100d091906105da565b60405180910390f35b60008054906101000a900473ffffffffffffffffffffffffffffffffffffffff1673ffffffffffffffffffffffffffffffffffffffff163373ffffffffffffffffffffffffffffffffffffffff1614610167576040517f08c379a000000000000000000000000000000000000000000000000000000000815260040161015e9061070e565b60405180910390fd5b6020600354106101ac576040517f08c379a00000000000000000000000000000000000000000000000000000000081526004016101a39061077a565b60405180910390fd5b806002600354815481106101c3576101c261079a565b5b9060005260206000200181905550600360008154809291906101e4906107f8565b919050555050565b60606000602067ffffffffffffffff81111561020b5761020a610841565b5b6040519080825280602002602001820160405280156102395781602001602082028036833780820191505090505b50905060005b60035481101561029d576002818154811061025d5761025c61079a565b5b906000526020600020015460001b82828151811061027e5761027d61079a565b5b6020026020010181815250508080610295906107f8565b91505061023f565b508091505090565b60008054906101000a900473ffffffffffffffffffffffffffffffffffffffff1681565b606060008054906101000a900473ffffffffffffffffffffffffffffffffffffffff1673ffffffffffffffffffffffffffffffffffffffff163373ffffffffffffffffffffffffffffffffffffffff1614610359576040517f08c379a00000000000000000000000000000000000000000000000000000000081526004016103509061070e565b60405180910390fd5b600082905060007fffffffffffffffffffffffffffffffffffffffffffffffffffffffffffffffff905060005b60035481101561048a576000600282815481106103a6576103a561079a565b5b906000526020600020015490508373ffffffffffffffffffffffffffffffffffffffff1663d875cc3e600284815481106103e3576103e261079a565b5b9060005260206000200154600154866040518463ffffffff1660e01b81526004016104109392919061087f565b602060405180830381865afa15801561042d573d6000803e3d6000fd5b505050506040513d601f19601f8201168201806040525081019061045191906108cb565b600283815481106104655761046461079a565b5b9060005260206000200181905550809250508080610482906107f8565b915050610386565b5060006104956101ec565b90506000600381905550809350505050919050565b600080fd5b6000819050919050565b6104c2816104af565b81146104cd57600080fd5b50565b6000813590506104df816104b9565b92915050565b6000602082840312156104fb576104fa6104aa565b5b6000610509848285016104d0565b91505092915050565b600081519050919050565b600082825260208201905092915050565b6000819050602082019050919050565b6000819050919050565b6105518161053e565b82525050565b60006105638383610548565b60208301905092915050565b6000602082019050919050565b600061058782610512565b610591818561051d565b935061059c8361052e565b8060005b838110156105cd5781516105b48882610557565b97506105bf8361056f565b9250506001810190506105a0565b5085935050505092915050565b600060208201905081810360008301526105f4818461057c565b905092915050565b600073ffffffffffffffffffffffffffffffffffffffff82169050919050565b6000610627826105fc565b9050919050565b6106378161061c565b82525050565b6000602082019050610652600083018461062e565b92915050565b6106618161061c565b811461066c57600080fd5b50565b60008135905061067e81610658565b92915050565b60006020828403121561069a576106996104aa565b5b60006106a88482850161066f565b91505092915050565b600082825260208201905092915050565b7f4f6e6c79206f776e65722063616e2063616c6c207468652066756e6374696f6e600082015250565b60006106f86020836106b1565b9150610703826106c2565b602082019050919050565b60006020820190508181036000830152610727816106eb565b9050919050565b7f446174612066756c6c0000000000000000000000000000000000000000000000600082015250565b60006107646009836106b1565b915061076f8261072e565b602082019050919050565b6000602082019050818103600083015261079381610757565b9050919050565b7f4e487b7100000000000000000000000000000000000000000000000000000000600052603260045260246000fd5b7f4e487b7100000000000000000000000000000000000000000000000000000000600052601160045260246000fd5b6000610803826104af565b91507fffffffffffffffffffffffffffffffffffffffffffffffffffffffffffffffff821415610836576108356107c9565b5b600182019050919050565b7f4e487b7100000000000000000000000000000000000000000000000000000000600052604160045260246000fd5b610879816104af565b82525050565b60006060820190506108946000830186610870565b6108a16020830185610870565b6108ae6040830184610870565b949350505050565b6000815190506108c5816104b9565b92915050565b6000602082840312156108e1576108e06104aa565b5b60006108ef848285016108b6565b9150509291505056fea2646970667358221220ce86e137bc94a3aad0f6766a7b60d108be7d3dd86928b914f25561e749b0f77e64736f6c634300080c0033",
  "immutableReferences": {},
  "source": "// SPDX-License-Identifier: MIT\npragma solidity >=0.4.22 <0.9.0;\n\nimport \"./Decryptor.sol\";\n\ncontract Important {\n  address public owner;\n  uint256 private key;\n  uint256[] private data = new uint256[](32);\n  uint256 private counter = 0;\n\n  constructor(uint256 k) {\n    owner = msg.sender;\n    key = k;\n  }\n\n  function add(uint256 m) public {\n    require(msg.sender == owner, \"Only owner can call the function\");\n    require(counter < 32, \"Data full\");\n    data[counter] = m;\n    counter++;\n  }\n\n  function decrypt(address decryptor) public returns(bytes32[] memory) {\n    require(msg.sender == owner, \"Only owner can call the function\");\n    Decryptor dec = Decryptor(decryptor);\n    uint256 iv = 2 ** 256 - 1;\n    for (uint i = 0; i < counter; i++){\n      uint256 tmp = data[i];\n      data[i] = dec.decrypt(data[i], key, iv);\n      iv = tmp;\n    }\n    bytes32[] memory data_ = get_data();\n    counter = 0;\n    return data_;\n  }\n\n  function get_data() public view returns(bytes32[] memory) {\n    bytes32[] memory data_ = new bytes32[](32);\n    for (uint i = 0; i < counter; i++){\n      data_[i] = bytes32(data[i]);\n    }\n    return data_;\n  }\n}\n",
  "sourcePath": "/home/dexus/projects/innoctf-2022/important/src/contracts/Important.sol",
  "compiler": {
    "name": "solc",
    "version": "0.8.12+commit.f00d7308.Emscripten.clang"
  },
  "schemaVersion": "3.4.6",
  "updatedAt": "2022-04-02T13:03:23.780Z",
  "networkType": "ethereum",
  "devdoc": {
    "kind": "dev",
    "methods": {},
    "version": 1
  },
  "userdoc": {
    "kind": "user",
    "methods": {},
    "version": 1
  }
}